{
  "contractName": "FlatPricing",
  "abi": [
    {
      "constant": true,
      "inputs": [],
      "name": "isPricingStrategy",
      "outputs": [
        {
          "name": "",
          "type": "bool"
        }
      ],
      "payable": false,
      "stateMutability": "view",
      "type": "function"
    },
    {
      "constant": true,
      "inputs": [
        {
          "name": "value",
          "type": "uint256"
        },
        {
          "name": "weiRaised",
          "type": "uint256"
        },
        {
          "name": "tokensSold",
          "type": "uint256"
        },
        {
          "name": "msgSender",
          "type": "address"
        },
        {
          "name": "decimals",
          "type": "uint256"
        }
      ],
      "name": "calculatePrice",
      "outputs": [
        {
          "name": "",
          "type": "uint256"
        }
      ],
      "payable": false,
      "stateMutability": "view",
      "type": "function"
    },
    {
      "constant": true,
      "inputs": [],
      "name": "oneTokenInWei",
      "outputs": [
        {
          "name": "",
          "type": "uint256"
        }
      ],
      "payable": false,
      "stateMutability": "view",
      "type": "function"
    },
    {
      "constant": true,
      "inputs": [
        {
          "name": "crowdsale",
          "type": "address"
        }
      ],
      "name": "isSane",
      "outputs": [
        {
          "name": "",
          "type": "bool"
        }
      ],
      "payable": false,
      "stateMutability": "view",
      "type": "function"
    },
    {
      "constant": true,
      "inputs": [
        {
          "name": "purchaser",
          "type": "address"
        }
      ],
      "name": "isPresalePurchase",
      "outputs": [
        {
          "name": "",
          "type": "bool"
        }
      ],
      "payable": false,
      "stateMutability": "view",
      "type": "function"
    },
    {
      "inputs": [
        {
          "name": "_oneTokenInWei",
          "type": "uint256"
        }
      ],
      "payable": false,
      "stateMutability": "nonpayable",
      "type": "constructor"
    }
  ],
  "bytecode": "0x6060604052341561000f57600080fd5b60405160208061030e8339810160405280805190602001909190505060008111151561003a57600080fd5b80600081905550506102bd806100516000396000f30060606040526004361061006d576000357c0100000000000000000000000000000000000000000000000000000000900463ffffffff16806304bbc2551461007257806318a4155e1461009f57806384e3ac94146101105780638e76828814610139578063f14ae17d1461018a575b600080fd5b341561007d57600080fd5b6100856101db565b604051808215151515815260200191505060405180910390f35b34156100aa57600080fd5b6100fa600480803590602001909190803590602001909190803590602001909190803573ffffffffffffffffffffffffffffffffffffffff169060200190919080359060200190919050506101e4565b6040518082815260200191505060405180910390f35b341561011b57600080fd5b610123610220565b6040518082815260200191505060405180910390f35b341561014457600080fd5b610170600480803573ffffffffffffffffffffffffffffffffffffffff16906020019091905050610226565b604051808215151515815260200191505060405180910390f35b341561019557600080fd5b6101c1600480803573ffffffffffffffffffffffffffffffffffffffff16906020019091905050610231565b604051808215151515815260200191505060405180910390f35b60006001905090565b60008082600a0a9050610214600054610206838a61023b90919063ffffffff16565b61027690919063ffffffff16565b91505095945050505050565b60005481565b600060019050919050565b6000809050919050565b6000806000841415610250576000915061026f565b828402905082848281151561026157fe5b0414151561026b57fe5b8091505b5092915050565b600080828481151561028457fe5b04905080915050929150505600a165627a7a72305820b796bb23eb7f51eb50064aa6cfa8ea0e148ca5356109d7f5b962fc2b85c9222d0029",
  "source": "/**\n * This smart contract code is Copyright 2017 TokenMarket Ltd. For more information see https://tokenmarket.net\n *\n * Licensed under the Apache License, version 2.0: https://github.com/TokenMarketNet/ico/blob/master/LICENSE.txt\n */\n\npragma solidity ^0.4.15;\n\nimport \"./PricingStrategy.sol\";\nimport \"zeppelin-solidity/contracts/math/SafeMath.sol\";\n\n/**\n * Fixed crowdsale pricing - everybody gets the same price.\n */\ncontract FlatPricing is PricingStrategy {\n\n  using SafeMath for uint;\n\n  /* How many weis one token costs */\n  uint public oneTokenInWei;\n\n  function FlatPricing(uint _oneTokenInWei) {\n    require(_oneTokenInWei > 0);\n    oneTokenInWei = _oneTokenInWei;\n  }\n\n  /**\n   * Calculate the current price for buy in amount.\n   *\n   */\n  function calculatePrice(uint value, uint weiRaised, uint tokensSold, address msgSender, uint decimals) public constant returns (uint) {\n    uint multiplier = 10 ** decimals;\n    return value.mul(multiplier).div(oneTokenInWei);\n  }\n\n}\n",
  "sourcePath": "/Users/kyle/Documents/dev/dala-smart-contracts/contracts/FlatPricing.sol",
  "compiler": {
    "name": "solc",
    "version": "0.4.18+commit.9cf6e910.Emscripten.clang"
  },
  "schemaVersion": "1.0.1",
  "updatedAt": "2018-01-17T13:36:20.645Z"
}