{
  "contractName": "Haltable",
  "abi": [
    {
      "constant": false,
      "inputs": [],
      "name": "halt",
      "outputs": [],
      "payable": false,
      "stateMutability": "nonpayable",
      "type": "function"
    },
    {
      "constant": true,
      "inputs": [],
      "name": "owner",
      "outputs": [
        {
          "name": "",
          "type": "address"
        }
      ],
      "payable": false,
      "stateMutability": "view",
      "type": "function"
    },
    {
      "constant": true,
      "inputs": [],
      "name": "halted",
      "outputs": [
        {
          "name": "",
          "type": "bool"
        }
      ],
      "payable": false,
      "stateMutability": "view",
      "type": "function"
    },
    {
      "constant": false,
      "inputs": [],
      "name": "unhalt",
      "outputs": [],
      "payable": false,
      "stateMutability": "nonpayable",
      "type": "function"
    },
    {
      "constant": false,
      "inputs": [
        {
          "name": "newOwner",
          "type": "address"
        }
      ],
      "name": "transferOwnership",
      "outputs": [],
      "payable": false,
      "stateMutability": "nonpayable",
      "type": "function"
    },
    {
      "anonymous": false,
      "inputs": [
        {
          "indexed": true,
          "name": "previousOwner",
          "type": "address"
        },
        {
          "indexed": true,
          "name": "newOwner",
          "type": "address"
        }
      ],
      "name": "OwnershipTransferred",
      "type": "event"
    }
  ],
  "bytecode": "0x6060604052336000806101000a81548173ffffffffffffffffffffffffffffffffffffffff021916908373ffffffffffffffffffffffffffffffffffffffff16021790555061041a806100536000396000f30060606040526004361061006d576000357c0100000000000000000000000000000000000000000000000000000000900463ffffffff1680635ed7ca5b146100725780638da5cb5b14610087578063b9b8af0b146100dc578063cb3e64fd14610109578063f2fde38b1461011e575b600080fd5b341561007d57600080fd5b610085610157565b005b341561009257600080fd5b61009a6101cf565b604051808273ffffffffffffffffffffffffffffffffffffffff1673ffffffffffffffffffffffffffffffffffffffff16815260200191505060405180910390f35b34156100e757600080fd5b6100ef6101f4565b604051808215151515815260200191505060405180910390f35b341561011457600080fd5b61011c610207565b005b341561012957600080fd5b610155600480803573ffffffffffffffffffffffffffffffffffffffff16906020019091905050610299565b005b6000809054906101000a900473ffffffffffffffffffffffffffffffffffffffff1673ffffffffffffffffffffffffffffffffffffffff163373ffffffffffffffffffffffffffffffffffffffff161415156101b257600080fd5b6001600060146101000a81548160ff021916908315150217905550565b6000809054906101000a900473ffffffffffffffffffffffffffffffffffffffff1681565b600060149054906101000a900460ff1681565b6000809054906101000a900473ffffffffffffffffffffffffffffffffffffffff1673ffffffffffffffffffffffffffffffffffffffff163373ffffffffffffffffffffffffffffffffffffffff1614151561026257600080fd5b600060149054906101000a900460ff16151561027d57600080fd5b60008060146101000a81548160ff021916908315150217905550565b6000809054906101000a900473ffffffffffffffffffffffffffffffffffffffff1673ffffffffffffffffffffffffffffffffffffffff163373ffffffffffffffffffffffffffffffffffffffff161415156102f457600080fd5b600073ffffffffffffffffffffffffffffffffffffffff168173ffffffffffffffffffffffffffffffffffffffff161415151561033057600080fd5b8073ffffffffffffffffffffffffffffffffffffffff166000809054906101000a900473ffffffffffffffffffffffffffffffffffffffff1673ffffffffffffffffffffffffffffffffffffffff167f8be0079c531659141344cd1fd0a4f28419497f9722a3daafe3b4186f6b6457e060405160405180910390a3806000806101000a81548173ffffffffffffffffffffffffffffffffffffffff021916908373ffffffffffffffffffffffffffffffffffffffff160217905550505600a165627a7a723058202674309134a7e97c4e5f112fc492cbc632c91af9838401da609c4f3464e5dc680029",
  "source": "/**\n * This smart contract code is Copyright 2017 TokenMarket Ltd. For more information see https://tokenmarket.net\n *\n * Licensed under the Apache License, version 2.0: https://github.com/TokenMarketNet/ico/blob/master/LICENSE.txt\n */\n\npragma solidity ^0.4.15;\n\nimport \"zeppelin-solidity/contracts/ownership/Ownable.sol\";\n\n/*\n * Haltable\n *\n * Abstract contract that allows children to implement an\n * emergency stop mechanism. Differs from Pausable by causing a throw when in halt mode.\n *\n *\n * Originally envisioned in FirstBlood ICO contract.\n */\ncontract Haltable is Ownable {\n  bool public halted;\n\n  modifier stopInEmergency {\n    if (halted) revert();\n    _;\n  }\n\n  modifier stopNonOwnersInEmergency {\n    if (halted && msg.sender != owner) revert();\n    _;\n  }\n\n  modifier onlyInEmergency {\n    if (!halted) revert();\n    _;\n  }\n\n  // called by the owner on emergency, triggers stopped state\n  function halt() external onlyOwner {\n    halted = true;\n  }\n\n  // called by the owner on end of emergency, returns to normal state\n  function unhalt() external onlyOwner onlyInEmergency {\n    halted = false;\n  }\n\n}\n",
  "sourcePath": "/Users/kyle/Documents/dev/dala-smart-contracts/contracts/Haltable.sol",
  "compiler": {
    "name": "solc",
    "version": "0.4.18+commit.9cf6e910.Emscripten.clang"
  },
  "schemaVersion": "1.0.1",
  "updatedAt": "2018-01-17T13:35:24.581Z"
}