{
  "contractName": "NullFinalizeAgent",
  "abi": [
    {
      "constant": false,
      "inputs": [],
      "name": "finalizeCrowdsale",
      "outputs": [],
      "payable": false,
      "stateMutability": "nonpayable",
      "type": "function"
    },
    {
      "constant": true,
      "inputs": [],
      "name": "isFinalizeAgent",
      "outputs": [
        {
          "name": "",
          "type": "bool"
        }
      ],
      "payable": false,
      "stateMutability": "view",
      "type": "function"
    },
    {
      "constant": true,
      "inputs": [],
      "name": "isSane",
      "outputs": [
        {
          "name": "",
          "type": "bool"
        }
      ],
      "payable": false,
      "stateMutability": "view",
      "type": "function"
    },
    {
      "constant": true,
      "inputs": [],
      "name": "crowdsale",
      "outputs": [
        {
          "name": "",
          "type": "address"
        }
      ],
      "payable": false,
      "stateMutability": "view",
      "type": "function"
    },
    {
      "inputs": [
        {
          "name": "_crowdsale",
          "type": "address"
        }
      ],
      "payable": false,
      "stateMutability": "nonpayable",
      "type": "constructor"
    }
  ],
  "bytecode": "0x6060604052341561000f57600080fd5b60405160208061020b83398101604052808051906020019091905050806000806101000a81548173ffffffffffffffffffffffffffffffffffffffff021916908373ffffffffffffffffffffffffffffffffffffffff160217905550506101908061007b6000396000f300606060405260043610610062576000357c0100000000000000000000000000000000000000000000000000000000900463ffffffff1680630bf318a314610067578063614cb9041461007c57806382771c8e146100a95780639c1e03a0146100d6575b600080fd5b341561007257600080fd5b61007a61012b565b005b341561008757600080fd5b61008f61012d565b604051808215151515815260200191505060405180910390f35b34156100b457600080fd5b6100bc610136565b604051808215151515815260200191505060405180910390f35b34156100e157600080fd5b6100e961013f565b604051808273ffffffffffffffffffffffffffffffffffffffff1673ffffffffffffffffffffffffffffffffffffffff16815260200191505060405180910390f35b565b60006001905090565b60006001905090565b6000809054906101000a900473ffffffffffffffffffffffffffffffffffffffff16815600a165627a7a72305820d95dc21bcae6efb133ecfd3c57261ca19bcfbe330644a0f52ad6041fedd74e9c0029",
  "source": "/**\n * This smart contract code is Copyright 2017 TokenMarket Ltd. For more information see https://tokenmarket.net\n *\n * Licensed under the Apache License, version 2.0: https://github.com/TokenMarketNet/ico/blob/master/LICENSE.txt\n */\n\npragma solidity ^0.4.15;\n\nimport \"./Crowdsale.sol\";\n\n/**\n * A finalize agent that does nothing.\n *\n * - Token transfer must be manually released by the owner\n */\ncontract NullFinalizeAgent is FinalizeAgent {\n\n  Crowdsale public crowdsale;\n\n  function NullFinalizeAgent(Crowdsale _crowdsale) {\n    crowdsale = _crowdsale;\n  }\n\n  /** Check that we can release the token */\n  function isSane() public constant returns (bool) {\n    return true;\n  }\n\n  /** Called once by crowdsale finalize() if the sale was success. */\n  function finalizeCrowdsale() public {\n  }\n\n}\n",
  "sourcePath": "/Users/kyle/Documents/dev/dala-smart-contracts/contracts/NullFinalizeAgent.sol",
  "compiler": {
    "name": "solc",
    "version": "0.4.18+commit.9cf6e910.Emscripten.clang"
  },
  "schemaVersion": "1.0.1",
  "updatedAt": "2018-01-17T13:36:21.436Z"
}